:060000000A128A110C280F
:10000800FE00030EF6000A08F7000A128A116F288C
:100018000A128A110F280A128A118B200A128A11D1
:10002800A0000A128A118C200A128A11A1000A1251
:100038008A118D200A128A11A2000A128A118E20B2
:100048000A128A11A300F001F101F201F301830100
:100058000A128A112F28831603130712071387170A
:1000680083120313981783160313181318121815FD
:100078004030990083120313181683160313981639
:100088008C160B178B178312031307161A3083125B
:100098000313A6005E30A5006D30A400A40B5228FF
:1000A800A50B5228A60B52285928831203130712AE
:1000B8001A3083120313A6005E30A5006D30A40029
:1000C800A40B6428A50B6428A60B64286B28472872
:1000D8000A128A110C28831203138C1E742875289F
:1000E80084281A08A000200899000730F5007D3000
:1000F800F400F40B7D28F50B7D28831203138C1272
:1001080077088A00760E8300FE0E7E0E09005534AD
:0601180050345334203482
:02400E00FE3F73
:00000001FF
